:100000000C9461000C9473000C9473000C947300B6
:100010000C9473000C9473000C9473000C94730094
:100020000C9473000C9473000C9473000C94730084
:100030000C9473000C9473000C9473000C94730074
:100040000C94F2000C9473000C9473000C947300E5
:100050000C9473000C9473000C9473000C94730054
:100060000C9473000C94730000000000250028001D
:100070002B0000000000240027002A0000000000E0
:1000800023002600290004040404040404040202DA
:100090000202020203030303030301020408102007
:1000A0004080010204081020010204081020000012
:1000B0000008000201000003040700000000000027
:1000C000000011241FBECFEFD8E0DEBFCDBF21E07E
:1000D000A0E0B1E001C01D92AF30B207E1F70E948D
:1000E0003C010C9486030C940000833081F028F4CA
:1000F000813099F08230A1F008958730A9F08830DE
:10010000B9F08430D1F4809180008F7D03C080915C
:1001100080008F7780938000089584B58F7702C028
:1001200084B58F7D84BD08958091B0008F7703C022
:100130008091B0008F7D8093B00008951F93CF937E
:10014000DF93282F30E0F901E255FF4F8491F90148
:10015000E656FF4FD491F901EA57FF4FC491CC23E3
:10016000C1F0162F81110E947500EC2FF0E0EE0F08
:10017000FF1FE859FF4FA591B4919FB7F894111153
:1001800004C08C91D095D82302C0EC91DE2BDC9377
:100190009FBFDF91CF911F9108953FB7F894809151
:1001A000050190910601A0910701B091080126B5C3
:1001B000A89B05C02F3F19F00196A11DB11D3FBF9F
:1001C000BA2FA92F982F8827820F911DA11DB11D2D
:1001D000BC01CD0142E0660F771F881F991F4A9529
:1001E000D1F708951F920F920FB60F9211242F93FB
:1001F0003F938F939F93AF93BF9380910101909111
:100200000201A0910301B09104013091000123E0AB
:10021000230F2D3720F40196A11DB11D05C026E83E
:10022000230F0296A11DB11D2093000180930101AF
:1002300090930201A0930301B09304018091050102
:1002400090910601A0910701B09108010196A11DAE
:10025000B11D8093050190930601A0930701B0930F
:100260000801BF91AF919F918F913F912F910F9076
:100270000FBE0F901F901895789484B5826084BD4E
:1002800084B5816084BD85B5826085BD85B581609A
:1002900085BD80916E00816080936E001092810018
:1002A00080918100826080938100809181008160D3
:1002B0008093810080918000816080938000809194
:1002C000B10084608093B1008091B0008160809320
:1002D000B00080917A00846080937A0080917A00E7
:1002E000826080937A0080917A00816080937A00A6
:1002F00080917A00806880937A001092C1007CE936
:10030000272E70E0372EF1012491E8E88E2EE0E0F0
:100310009E2EF40184918823C1F090E0880F991FEC
:10032000FC01EE58FF4FC591D491FC01E859FF4FF5
:10033000A591B4913FB7F8949881822F8095982326
:1003400098838C91822B8C933FBF23E030E0F9019E
:10035000E656FF4F4491F901EA57FF4F84918823F5
:1003600099F090E0880F991FFC01EE58FF4FA5917E
:10037000B491FC01E859FF4F859194918FB7F8949F
:10038000EC91E42BEC938FBF2F5F3F4F273031056B
:10039000F1F600E010E043E0A42EB12CC0910D0175
:1003A000D0910E01209721F461E083E00E949E002D
:1003B000E0EBF0E08491F101F490F401E490EE20A0
:1003C00009F480C081110E947500EE2DF0E0EE0F5F
:1003D000FF1FE458FF4FA591B4918C91F82209F4C6
:1003E00071C0C0900901D0900A01E0900B01F0901B
:1003F0000C0120E030E04AEF53E4C701B6010E944F
:100400005D0387FD31C02197D7FD05C0D0930E0154
:10041000C0930D0104C0B0920E01A0920D0123E023
:10042000F22EC0E0D0E080910D0190910E018C176A
:100430009D0711F461E001C060E08F2D0E949E00D5
:100440002196F394F7E0FF12EECF1092090110927B
:100450000A0110920B0110920C010115110509F40B
:100460009DCF0E9400009ACF20E030E040EA50E4A7
:10047000C701B6010E945D0387FDE7CF2196C43016
:10048000D1052CF4D0930E01C0930D0104C010923D
:100490000E0110920D0193E0F92EC0E0D0E08091A2
:1004A0000D0190910E018C179D0711F461E001C0C0
:1004B00060E08F2D0E949E002196F39427E0F212B7
:1004C000EECFC3CF0E94CD002B013C0182E3C82EAA
:1004D000D12CE12CF12C0E94CD00DC01CB01841940
:1004E0009509A609B709883E9340A105B10598F37F
:1004F000F1E0CF1AD108E108F10828EE420E23E01E
:10050000521E611C711CC114D104E104F10419F7DD
:1005100020E030E048E452E46091090170910A0162
:1005200080910B0190910C010E94A002609309013F
:1005300070930A0180930B0190930C0139CF5058AE
:10054000BB27AA270E94B7020C9423030E9415031D
:1005500038F00E941C0320F039F49F3F19F426F470
:100560000C9412030EF4E095E7FB0C940C03E92FB6
:100570000E94340358F3BA1762077307840795077C
:1005800020F079F4A6F50C9456030EF4E0950B2EAA
:10059000BA2FA02D0B01B90190010C01CA01A001D5
:1005A0001124FF27591B99F0593F50F4503E68F130
:1005B0001A16F040A22F232F342F4427585FF3CF71
:1005C000469537952795A795F0405395C9F77EF442
:1005D0001F16BA0B620B730B840BBAF09150A1F08B
:1005E000FF0FBB1F661F771F881FC2F70EC0BA0F11
:1005F000621F731F841F48F4879577956795B79599
:10060000F7959E3F08F0B0CF9395880F08F0992793
:10061000EE0F97958795089597F99F6780E870E0AA
:1006200060E008959FEF80EC089500240A94161668
:10063000170618060906089500240A9412161306D0
:10064000140605060895092E0394000C11F488235E
:1006500052F0BB0F40F4BF2B11F460FF04C06F5F7A
:100660007F4F8F4F9F4F089557FD9058440F551F50
:1006700059F05F3F71F04795880F97FB991F61F024
:100680009F3F79F087950895121613061406551F9B
:10069000F2CF4695F1DF08C0161617061806991F07
:1006A000F1CF86957105610508940895E894BB27FC
:1006B00066277727CB0197F908950E94620308F413
:1006C0008FEF0895990F0008550FAA0BE0E8FEEF91
:1006D00016161706E807F907C0F012161306E40706
:1006E000F50798F0621B730B840B950B39F40A26FF
:1006F00061F0232B242B252B21F408950A2609F4DD
:10070000A140A6958FEF811D811D0895F894FFCF1C
:107800000C94343C0C94513C0C94513C0C94513CE1
:107810000C94513C0C94513C0C94513C0C94513CB4
:107820000C94513C0C94513C0C94513C0C94513CA4
:107830000C94513C0C94513C0C94513C0C94513C94
:107840000C94513C0C94513C0C94513C0C94513C84
:107850000C94513C0C94513C0C94513C0C94513C74
:107860000C94513C0C94513C11241FBECFEFD8E036
:10787000DEBFCDBF11E0A0E0B1E0E6ECFDE702C065
:1078800005900D92A230B107D9F722E0A2E0B1E055
:1078900001C01D92AD30B207E1F70E940A3D0C9481
:1078A000E13E0C94003C9091C00095FFFCCF80938A
:1078B000C6000895CF93982F8595859585958595D4
:1078C000805D9F709A3014F0C7E501C0C0E3C90F16
:1078D0000E94533C8C2FCF910C94533CCF92DF925B
:1078E000EF92FF92C12CD12C76018091C00087FDD0
:1078F00013C08FEFC81AD80AE80AF80A81E4C8163C
:1079000082E4D8068FE0E806F10478F3E091020102
:10791000F09103010995E9CF8091C600FF90EF90A7
:10792000DF90CF900895CF930E946E3CC82F0E94A5
:10793000533CC13614F089EA03C0C0331CF080ED1B
:107940008C0F01C08C2FCF910895CF930E94933C50
:10795000C82F0E94933C90E1C99F800D1124CF91C4
:107960000895CF93C82FCC2321F00E946E3CC150C4
:10797000FACFCF910895CF93C82F0E946E3C8032EA
:1079800051F484E10E94533C8C2F0E94533C80E1CF
:10799000CF910C94533C809104018F5F809304013C
:1079A000853031F4E0910201F0910301CF91099407
:1079B000CF9108950E946E3C803231F484E10E94A0
:1079C000533C80E10C94533C809104018F5F809381
:1079D0000401853029F4E0910201F091030109943A
:1079E00008958823B1F02D9A2FEF31EE94E02150C5
:1079F00030409040E1F700C000002D982FEF31EEAD
:107A000094E0215030409040E1F700C000008150E8
:107A1000E8CF08950000E0E0F0E0E49180E1809399
:107A2000C4001092C50088E18093C10086E0809375
:107A3000C2005098589A259A81E00E94F13CFF2498
:107A4000F3940E946E3C803309F442C08133E1F428
:107A50000E946E3C803209F0A6C184E10E94533C32
:107A600081E40E94533C86E50E94533C82E50E94DB
:107A7000533C80E20E94533C89E40E94533C83E5DE
:107A80000E94533C80E586C1803439F40E946E3CEC
:107A90008638F0F00E946E3C1BC08134A1F40E9435
:107AA0006E3C803811F482E003C0813821F481E01B
:107AB0000E94BB3CC6CF823811F480E1F9CF8839EF
:107AC000C9F583E0F5CF823431F484E10E94B13C02
:107AD0000E94DA3CB6CF853411F485E0F7CF982FB9
:107AE0009D7F9035A9F3813599F3853549F40E943E
:107AF0006E3C809306010E946E3C80930701E8CFA4
:107B00008635D1F40E946E3C803389F40E946E3C2D
:107B10000E946E3C182F0E946E3C111102C08EE133
:107B2000C7CF113011F485E9C3CF8FE0C1CF83E017
:107B30000E94B13C80E0BCCF843609F0C6C00E94F0
:107B40006E3C809309020E946E3C809308028091F3
:107B50000C028E7F80930C020E946E3C853429F4C7
:107B600080910C02816080930C0208E011E020916A
:107B7000080230910902C80188509140821793078A
:107B800030F40E946E3CF80181938F01F0CF0E9487
:107B90006E3C803209F007C180910C0220910601F1
:107BA0003091070180FF29C0220F331F3093070156
:107BB00020930601E8E0F1E02091080230910902EB
:107BC000CF01885091408217930708F07CC0F99943
:107BD000FECF809106019091070192BD81BD8191F8
:107BE00080BDFA9AF99A8091060190910701019659
:107BF0009093070180930601DFCF80910701880FE2
:107C0000880B8F2180930B02220F331F30930701C3
:107C1000209306018091080280FF09C0809108022C
:107C20009091090201969093090280930802F894BA
:107C3000F999FECF1127E0910601F0910701C8E004
:107C4000D1E08091080290910902103091F40091E6
:107C5000570001700130D9F303E000935700E89515
:107C60000091570001700130D9F301E100935700F2
:107C7000E895099019900091570001700130D9F3EF
:107C800001E000935700E8951395103498F0112700
:107C90000091570001700130D9F305E000935700BF
:107CA000E8950091570001700130D9F301E100938C
:107CB0005700E8953296029709F0C7CF103011F0BF
:107CC0000296E5CF112484E165C0843709F052C0E3
:107CD0000E946E3C809309020E946E3C80930802D1
:107CE0008091060190910701880F991F90930701D9
:107CF000809306010E946E3C90910C02853411F431
:107D0000916001C09E7F90930C020E946E3C803275
:107D100009F097CE84E10E94533C00E010E080918E
:107D200008029091090208171907B0F580910C021A
:107D300080FF0BC0F999FECF809106019091070159
:107D400092BD81BDF89A80B507C081FD07C0E09162
:107D50000601F091070184910E94533C8091060135
:107D600090910701019690930701809306010F5FA0
:107D70001F4FD5CF8537A1F40E946E3C803299F415
:107D800084E10E94533C8EE10E94533C85E90E94AD
:107D9000533C8FE00E94533C80E10E94533C51CE03
:107DA000863709F4C7CE809104018F5F8093040168
:107DB000853009F046CEE0910201F091030109956A
:067DC00040CEF894FFCF55
:027DC60080003B
:040000030000780081
:00000001FF
